{
  "_format": "hh-sol-artifact-1",
  "contractName": "LoftyClouds",
  "sourceName": "contracts/LoftyClouds.sol",
  "abi": [
    {
      "inputs": [
        {
          "internalType": "bytes32",
          "name": "_WHITELIST_MERKLE_TREE_ROOT",
          "type": "bytes32"
        }
      ],
      "stateMutability": "nonpayable",
      "type": "constructor"
    },
    {
      "anonymous": false,
      "inputs": [
        {
          "indexed": true,
          "internalType": "address",
          "name": "account",
          "type": "address"
        },
        {
          "indexed": true,
          "internalType": "address",
          "name": "operator",
          "type": "address"
        },
        {
          "indexed": false,
          "internalType": "bool",
          "name": "approved",
          "type": "bool"
        }
      ],
      "name": "ApprovalForAll",
      "type": "event"
    },
    {
      "anonymous": false,
      "inputs": [
        {
          "indexed": true,
          "internalType": "address",
          "name": "previousOwner",
          "type": "address"
        },
        {
          "indexed": true,
          "internalType": "address",
          "name": "newOwner",
          "type": "address"
        }
      ],
      "name": "OwnershipTransferred",
      "type": "event"
    },
    {
      "anonymous": false,
      "inputs": [
        {
          "indexed": true,
          "internalType": "address",
          "name": "operator",
          "type": "address"
        },
        {
          "indexed": true,
          "internalType": "address",
          "name": "from",
          "type": "address"
        },
        {
          "indexed": true,
          "internalType": "address",
          "name": "to",
          "type": "address"
        },
        {
          "indexed": false,
          "internalType": "uint256[]",
          "name": "ids",
          "type": "uint256[]"
        },
        {
          "indexed": false,
          "internalType": "uint256[]",
          "name": "values",
          "type": "uint256[]"
        }
      ],
      "name": "TransferBatch",
      "type": "event"
    },
    {
      "anonymous": false,
      "inputs": [
        {
          "indexed": true,
          "internalType": "address",
          "name": "operator",
          "type": "address"
        },
        {
          "indexed": true,
          "internalType": "address",
          "name": "from",
          "type": "address"
        },
        {
          "indexed": true,
          "internalType": "address",
          "name": "to",
          "type": "address"
        },
        {
          "indexed": false,
          "internalType": "uint256",
          "name": "id",
          "type": "uint256"
        },
        {
          "indexed": false,
          "internalType": "uint256",
          "name": "value",
          "type": "uint256"
        }
      ],
      "name": "TransferSingle",
      "type": "event"
    },
    {
      "anonymous": false,
      "inputs": [
        {
          "indexed": false,
          "internalType": "string",
          "name": "value",
          "type": "string"
        },
        {
          "indexed": true,
          "internalType": "uint256",
          "name": "id",
          "type": "uint256"
        }
      ],
      "name": "URI",
      "type": "event"
    },
    {
      "inputs": [],
      "name": "FREE_NFT_SUPPLY",
      "outputs": [
        {
          "internalType": "uint256",
          "name": "",
          "type": "uint256"
        }
      ],
      "stateMutability": "view",
      "type": "function"
    },
    {
      "inputs": [],
      "name": "MAX_MINT_AMOUNT_PER_TRANSACTION",
      "outputs": [
        {
          "internalType": "uint256",
          "name": "",
          "type": "uint256"
        }
      ],
      "stateMutability": "view",
      "type": "function"
    },
    {
      "inputs": [],
      "name": "MAX_NFT_SUPPLY",
      "outputs": [
        {
          "internalType": "uint256",
          "name": "",
          "type": "uint256"
        }
      ],
      "stateMutability": "view",
      "type": "function"
    },
    {
      "inputs": [],
      "name": "METADATA_PROVENANCE_HASH",
      "outputs": [
        {
          "internalType": "string",
          "name": "",
          "type": "string"
        }
      ],
      "stateMutability": "view",
      "type": "function"
    },
    {
      "inputs": [],
      "name": "MINTING_FEE",
      "outputs": [
        {
          "internalType": "uint256",
          "name": "",
          "type": "uint256"
        }
      ],
      "stateMutability": "view",
      "type": "function"
    },
    {
      "inputs": [],
      "name": "WHITELIST_MERKLE_TREE_ROOT",
      "outputs": [
        {
          "internalType": "bytes32",
          "name": "",
          "type": "bytes32"
        }
      ],
      "stateMutability": "view",
      "type": "function"
    },
    {
      "inputs": [
        {
          "internalType": "address",
          "name": "account",
          "type": "address"
        },
        {
          "internalType": "uint256",
          "name": "id",
          "type": "uint256"
        }
      ],
      "name": "balanceOf",
      "outputs": [
        {
          "internalType": "uint256",
          "name": "",
          "type": "uint256"
        }
      ],
      "stateMutability": "view",
      "type": "function"
    },
    {
      "inputs": [
        {
          "internalType": "address[]",
          "name": "accounts",
          "type": "address[]"
        },
        {
          "internalType": "uint256[]",
          "name": "ids",
          "type": "uint256[]"
        }
      ],
      "name": "balanceOfBatch",
      "outputs": [
        {
          "internalType": "uint256[]",
          "name": "",
          "type": "uint256[]"
        }
      ],
      "stateMutability": "view",
      "type": "function"
    },
    {
      "inputs": [
        {
          "internalType": "address",
          "name": "_to",
          "type": "address"
        },
        {
          "internalType": "uint256",
          "name": "_quantity",
          "type": "uint256"
        }
      ],
      "name": "batchMint",
      "outputs": [],
      "stateMutability": "payable",
      "type": "function"
    },
    {
      "inputs": [],
      "name": "contractURI",
      "outputs": [
        {
          "internalType": "string",
          "name": "",
          "type": "string"
        }
      ],
      "stateMutability": "view",
      "type": "function"
    },
    {
      "inputs": [],
      "name": "currentTokenID",
      "outputs": [
        {
          "internalType": "uint256",
          "name": "",
          "type": "uint256"
        }
      ],
      "stateMutability": "view",
      "type": "function"
    },
    {
      "inputs": [
        {
          "internalType": "address",
          "name": "",
          "type": "address"
        }
      ],
      "name": "didMintPresale",
      "outputs": [
        {
          "internalType": "bool",
          "name": "",
          "type": "bool"
        }
      ],
      "stateMutability": "view",
      "type": "function"
    },
    {
      "inputs": [
        {
          "internalType": "address",
          "name": "account",
          "type": "address"
        },
        {
          "internalType": "address",
          "name": "operator",
          "type": "address"
        }
      ],
      "name": "isApprovedForAll",
      "outputs": [
        {
          "internalType": "bool",
          "name": "",
          "type": "bool"
        }
      ],
      "stateMutability": "view",
      "type": "function"
    },
    {
      "inputs": [],
      "name": "isPresaleActive",
      "outputs": [
        {
          "internalType": "bool",
          "name": "",
          "type": "bool"
        }
      ],
      "stateMutability": "view",
      "type": "function"
    },
    {
      "inputs": [],
      "name": "isSalePaused",
      "outputs": [
        {
          "internalType": "bool",
          "name": "",
          "type": "bool"
        }
      ],
      "stateMutability": "view",
      "type": "function"
    },
    {
      "inputs": [
        {
          "internalType": "address",
          "name": "_to",
          "type": "address"
        },
        {
          "internalType": "bytes32[]",
          "name": "_proof",
          "type": "bytes32[]"
        }
      ],
      "name": "mintPresale",
      "outputs": [],
      "stateMutability": "nonpayable",
      "type": "function"
    },
    {
      "inputs": [],
      "name": "name",
      "outputs": [
        {
          "internalType": "string",
          "name": "",
          "type": "string"
        }
      ],
      "stateMutability": "view",
      "type": "function"
    },
    {
      "inputs": [],
      "name": "owner",
      "outputs": [
        {
          "internalType": "address",
          "name": "",
          "type": "address"
        }
      ],
      "stateMutability": "view",
      "type": "function"
    },
    {
      "inputs": [],
      "name": "renounceOwnership",
      "outputs": [],
      "stateMutability": "nonpayable",
      "type": "function"
    },
    {
      "inputs": [
        {
          "internalType": "address",
          "name": "from",
          "type": "address"
        },
        {
          "internalType": "address",
          "name": "to",
          "type": "address"
        },
        {
          "internalType": "uint256[]",
          "name": "ids",
          "type": "uint256[]"
        },
        {
          "internalType": "uint256[]",
          "name": "amounts",
          "type": "uint256[]"
        },
        {
          "internalType": "bytes",
          "name": "data",
          "type": "bytes"
        }
      ],
      "name": "safeBatchTransferFrom",
      "outputs": [],
      "stateMutability": "nonpayable",
      "type": "function"
    },
    {
      "inputs": [
        {
          "internalType": "address",
          "name": "from",
          "type": "address"
        },
        {
          "internalType": "address",
          "name": "to",
          "type": "address"
        },
        {
          "internalType": "uint256",
          "name": "id",
          "type": "uint256"
        },
        {
          "internalType": "uint256",
          "name": "amount",
          "type": "uint256"
        },
        {
          "internalType": "bytes",
          "name": "data",
          "type": "bytes"
        }
      ],
      "name": "safeTransferFrom",
      "outputs": [],
      "stateMutability": "nonpayable",
      "type": "function"
    },
    {
      "inputs": [
        {
          "internalType": "address",
          "name": "operator",
          "type": "address"
        },
        {
          "internalType": "bool",
          "name": "approved",
          "type": "bool"
        }
      ],
      "name": "setApprovalForAll",
      "outputs": [],
      "stateMutability": "nonpayable",
      "type": "function"
    },
    {
      "inputs": [
        {
          "internalType": "string",
          "name": "_newBaseMetadataURI",
          "type": "string"
        }
      ],
      "name": "setBaseMetadataURI",
      "outputs": [],
      "stateMutability": "nonpayable",
      "type": "function"
    },
    {
      "inputs": [
        {
          "internalType": "bytes4",
          "name": "interfaceId",
          "type": "bytes4"
        }
      ],
      "name": "supportsInterface",
      "outputs": [
        {
          "internalType": "bool",
          "name": "",
          "type": "bool"
        }
      ],
      "stateMutability": "view",
      "type": "function"
    },
    {
      "inputs": [
        {
          "internalType": "address",
          "name": "newOwner",
          "type": "address"
        }
      ],
      "name": "transferOwnership",
      "outputs": [],
      "stateMutability": "nonpayable",
      "type": "function"
    },
    {
      "inputs": [
        {
          "internalType": "bool",
          "name": "_status",
          "type": "bool"
        }
      ],
      "name": "updatePresaleStatus",
      "outputs": [],
      "stateMutability": "nonpayable",
      "type": "function"
    },
    {
      "inputs": [
        {
          "internalType": "bool",
          "name": "_isSalePaused",
          "type": "bool"
        }
      ],
      "name": "updateSalePausedStatus",
      "outputs": [],
      "stateMutability": "nonpayable",
      "type": "function"
    },
    {
      "inputs": [
        {
          "internalType": "uint256",
          "name": "_tokenID",
          "type": "uint256"
        }
      ],
      "name": "uri",
      "outputs": [
        {
          "internalType": "string",
          "name": "",
          "type": "string"
        }
      ],
      "stateMutability": "view",
      "type": "function"
    },
    {
      "inputs": [],
      "name": "withdrawFullBalance",
      "outputs": [],
      "stateMutability": "payable",
      "type": "function"
    }
  ],
  "bytecode": "0x60a06040526001600560006101000a81548160ff0219169083151502179055506000600560016101000a81548160ff02191690831515021790555060016007553480156200004c57600080fd5b5060405162004eea38038062004eea8339818101604052810190620000729190620002cc565b60405180608001604052806051815260200162004e99605191396200009d816200011b60201b60201c565b50620000be620000b26200013760201b60201c565b6200013f60201b60201c565b6040518060400160405280600c81526020017f4c6f66747920436c6f7564730000000000000000000000000000000000000000815250600490805190602001906200010b92919062000205565b5080608081815250505062000381565b80600290805190602001906200013392919062000205565b5050565b600033905090565b6000600360009054906101000a900473ffffffffffffffffffffffffffffffffffffffff16905081600360006101000a81548173ffffffffffffffffffffffffffffffffffffffff021916908373ffffffffffffffffffffffffffffffffffffffff1602179055508173ffffffffffffffffffffffffffffffffffffffff168173ffffffffffffffffffffffffffffffffffffffff167f8be0079c531659141344cd1fd0a4f28419497f9722a3daafe3b4186f6b6457e060405160405180910390a35050565b828054620002139062000302565b90600052602060002090601f01602090048101928262000237576000855562000283565b82601f106200025257805160ff191683800117855562000283565b8280016001018555821562000283579182015b828111156200028257825182559160200191906001019062000265565b5b50905062000292919062000296565b5090565b5b80821115620002b157600081600090555060010162000297565b5090565b600081519050620002c68162000367565b92915050565b600060208284031215620002df57600080fd5b6000620002ef84828501620002b5565b91505092915050565b6000819050919050565b600060028204905060018216806200031b57607f821691505b6020821081141562000332576200033162000338565b5b50919050565b7f4e487b7100000000000000000000000000000000000000000000000000000000600052602260045260246000fd5b6200037281620002f8565b81146200037e57600080fd5b50565b608051614af5620003a460003960008181610a030152610e2e0152614af56000f3fe6080604052600436106101c05760003560e01c806360d938dc116100f7578063bb62115e11610095578063e985e9c511610064578063e985e9c514610602578063f0c9dc601461063f578063f242432a1461066a578063f2fde38b14610693576101c0565b8063bb62115e14610544578063d642b4b11461056f578063d7e28e301461059a578063e8a3d485146105d7576101c0565b80638da5cb5b116100d15780638da5cb5b1461049a578063a22cb465146104c5578063b5077f44146104ee578063bb4748a114610519576101c0565b806360d938dc1461042f578063715018a61461045a5780637e518ec814610471576101c0565b80630e89341c116101645780632eb2c2d61161013e5780632eb2c2d61461038257806343508b05146103ab5780634e1273f4146103c75780636086c41b14610404576101c0565b80630e89341c1461031057806314d0c8771461034d5780632852abae14610357576101c0565b80630623f69f116101a05780630623f69f1461026a578063064352911461029357806306fdde03146102bc5780630888d692146102e7576101c0565b80628ca816146101c5578062fdd58e146101f057806301ffc9a71461022d575b600080fd5b3480156101d157600080fd5b506101da6106bc565b6040516101e79190613a82565b60405180910390f35b3480156101fc57600080fd5b5061021760048036038101906102129190613246565b6106cf565b6040516102249190613dda565b60405180910390f35b34801561023957600080fd5b50610254600480360381019061024f9190613317565b610798565b6040516102619190613a82565b60405180910390f35b34801561027657600080fd5b50610291600480360381019061028c91906131b2565b610849565b005b34801561029f57600080fd5b506102ba60048036038101906102b591906132ee565b610ad1565b005b3480156102c857600080fd5b506102d1610b6a565b6040516102de9190613ab8565b60405180910390f35b3480156102f357600080fd5b5061030e600480360381019061030991906132ee565b610bf8565b005b34801561031c57600080fd5b50610337600480360381019061033291906133ae565b610c91565b6040516103449190613ab8565b60405180910390f35b610355610d53565b005b34801561036357600080fd5b5061036c610e2c565b6040516103799190613a9d565b60405180910390f35b34801561038e57600080fd5b506103a960048036038101906103a49190613064565b610e50565b005b6103c560048036038101906103c09190613246565b610ef1565b005b3480156103d357600080fd5b506103ee60048036038101906103e99190613282565b61125c565b6040516103fb9190613a29565b60405180910390f35b34801561041057600080fd5b5061041961140d565b6040516104269190613dda565b60405180910390f35b34801561043b57600080fd5b50610444611412565b6040516104519190613a82565b60405180910390f35b34801561046657600080fd5b5061046f611425565b005b34801561047d57600080fd5b5061049860048036038101906104939190613369565b6114ad565b005b3480156104a657600080fd5b506104af61157a565b6040516104bc919061394c565b60405180910390f35b3480156104d157600080fd5b506104ec60048036038101906104e7919061320a565b6115a4565b005b3480156104fa57600080fd5b506105036115ba565b6040516105109190613dda565b60405180910390f35b34801561052557600080fd5b5061052e6115c0565b60405161053b9190613dda565b60405180910390f35b34801561055057600080fd5b506105596115c6565b6040516105669190613dda565b60405180910390f35b34801561057b57600080fd5b506105846115cc565b6040516105919190613dda565b60405180910390f35b3480156105a657600080fd5b506105c160048036038101906105bc9190612fff565b6115d7565b6040516105ce9190613a82565b60405180910390f35b3480156105e357600080fd5b506105ec6115f7565b6040516105f99190613ab8565b60405180910390f35b34801561060e57600080fd5b5061062960048036038101906106249190613028565b611627565b6040516106369190613a82565b60405180910390f35b34801561064b57600080fd5b506106546116bb565b6040516106619190613ab8565b60405180910390f35b34801561067657600080fd5b50610691600480360381019061068c9190613123565b6116d7565b005b34801561069f57600080fd5b506106ba60048036038101906106b59190612fff565b611778565b005b600560019054906101000a900460ff1681565b60008073ffffffffffffffffffffffffffffffffffffffff168373ffffffffffffffffffffffffffffffffffffffff161415610740576040517f08c379a000000000000000000000000000000000000000000000000000000000815260040161073790613b1a565b60405180910390fd5b60008083815260200190815260200160002060008473ffffffffffffffffffffffffffffffffffffffff1673ffffffffffffffffffffffffffffffffffffffff16815260200190815260200160002054905092915050565b60006301ffc9a760e01b7bffffffffffffffffffffffffffffffffffffffffffffffffffffffff1916827bffffffffffffffffffffffffffffffffffffffffffffffffffffffff19161480610831575063d9b67a2660e01b7bffffffffffffffffffffffffffffffffffffffffffffffffffffffff1916827bffffffffffffffffffffffffffffffffffffffffffffffffffffffff1916145b1561083f5760019050610844565b600090505b919050565b600560009054906101000a900460ff16610898576040517f08c379a000000000000000000000000000000000000000000000000000000000815260040161088f90613d1a565b60405180910390fd5b600560019054906101000a900460ff16156108e8576040517f08c379a00000000000000000000000000000000000000000000000000000000081526004016108df90613bfa565b60405180910390fd5b600660008473ffffffffffffffffffffffffffffffffffffffff1673ffffffffffffffffffffffffffffffffffffffff16815260200190815260200160002060009054906101000a900460ff1615610975576040517f08c379a000000000000000000000000000000000000000000000000000000000815260040161096c90613c9a565b60405180910390fd5b61014d60075411156109bc576040517f08c379a00000000000000000000000000000000000000000000000000000000081526004016109b390613cfa565b60405180910390fd5b610a4e828280806020026020016040519081016040528093929190818152602001838360200280828437600081840152601f19601f820116905080830192505050505050507f000000000000000000000000000000000000000000000000000000000000000085604051602001610a3391906138e0565b60405160208183030381529060405280519060200120611870565b610a8d576040517f08c379a0000000000000000000000000000000000000000000000000000000008152600401610a8490613b9a565b60405180910390fd5b6060600760008154610a9e90614180565b91905081905550610ab0846001611887565b610acb846001600754610ac39190614029565b6001846118e2565b50505050565b610ad9611a78565b73ffffffffffffffffffffffffffffffffffffffff16610af761157a565b73ffffffffffffffffffffffffffffffffffffffff1614610b4d576040517f08c379a0000000000000000000000000000000000000000000000000000000008152600401610b4490613c7a565b60405180910390fd5b80600560016101000a81548160ff02191690831515021790555050565b60048054610b779061411d565b80601f0160208091040260200160405190810160405280929190818152602001828054610ba39061411d565b8015610bf05780601f10610bc557610100808354040283529160200191610bf0565b820191906000526020600020905b815481529060010190602001808311610bd357829003601f168201915b505050505081565b610c00611a78565b73ffffffffffffffffffffffffffffffffffffffff16610c1e61157a565b73ffffffffffffffffffffffffffffffffffffffff1614610c74576040517f08c379a0000000000000000000000000000000000000000000000000000000008152600401610c6b90613c7a565b60405180910390fd5b80600560006101000a81548160ff02191690831515021790555050565b606060008211610cd6576040517f08c379a0000000000000000000000000000000000000000000000000000000008152600401610ccd90613b7a565b60405180910390fd5b6007548210610d1a576040517f08c379a0000000000000000000000000000000000000000000000000000000008152600401610d1190613c3a565b60405180910390fd5b610d2382611a80565b610d2c83611b14565b604051602001610d3d9291906138fb565b6040516020818303038152906040529050919050565b610d5b611a78565b73ffffffffffffffffffffffffffffffffffffffff16610d7961157a565b73ffffffffffffffffffffffffffffffffffffffff1614610dcf576040517f08c379a0000000000000000000000000000000000000000000000000000000008152600401610dc690613c7a565b60405180910390fd5b7386cc8121b46f6b7f8a2213c89087ad7741f8542a73ffffffffffffffffffffffffffffffffffffffff166108fc479081150290604051600060405180830381858888f19350505050158015610e29573d6000803e3d6000fd5b50565b7f000000000000000000000000000000000000000000000000000000000000000081565b610e58611a78565b73ffffffffffffffffffffffffffffffffffffffff168573ffffffffffffffffffffffffffffffffffffffff161480610e9e5750610e9d85610e98611a78565b611627565b5b610edd576040517f08c379a0000000000000000000000000000000000000000000000000000000008152600401610ed490613bda565b60405180910390fd5b610eea8585858585611cc1565b5050505050565b600560009054906101000a900460ff1615610f41576040517f08c379a0000000000000000000000000000000000000000000000000000000008152600401610f3890613cda565b60405180910390fd5b600560019054906101000a900460ff1615610f91576040517f08c379a0000000000000000000000000000000000000000000000000000000008152600401610f8890613bfa565b60405180910390fd5b600081118015610fa2575060038111155b610fe1576040517f08c379a0000000000000000000000000000000000000000000000000000000008152600401610fd890613c1a565b60405180910390fd5b610d05600160075483610ff49190613f48565b610ffe9190614029565b111561103f576040517f08c379a000000000000000000000000000000000000000000000000000000000815260040161103690613cba565b60405180910390fd5b666a94d74f430000816110529190613fcf565b341015611094576040517f08c379a000000000000000000000000000000000000000000000000000000000815260040161108b90613dba565b60405180910390fd5b606060008267ffffffffffffffff8111156110d8577f4e487b7100000000000000000000000000000000000000000000000000000000600052604160045260246000fd5b6040519080825280602002602001820160405280156111065781602001602082028036833780820191505090505b50905060008367ffffffffffffffff81111561114b577f4e487b7100000000000000000000000000000000000000000000000000000000600052604160045260246000fd5b6040519080825280602002602001820160405280156111795781602001602082028036833780820191505090505b50905060005b8481101561123457806007546111959190613f48565b8382815181106111ce577f4e487b7100000000000000000000000000000000000000000000000000000000600052603260045260246000fd5b6020026020010181815250506001828281518110611215577f4e487b7100000000000000000000000000000000000000000000000000000000600052603260045260246000fd5b602002602001018181525050808061122c90614180565b91505061117f565b50836007546112439190613f48565b60078190555061125585838386612021565b5050505050565b606081518351146112a2576040517f08c379a000000000000000000000000000000000000000000000000000000000815260040161129990613d5a565b60405180910390fd5b6000835167ffffffffffffffff8111156112e5577f4e487b7100000000000000000000000000000000000000000000000000000000600052604160045260246000fd5b6040519080825280602002602001820160405280156113135781602001602082028036833780820191505090505b50905060005b8451811015611402576113ac85828151811061135e577f4e487b7100000000000000000000000000000000000000000000000000000000600052603260045260246000fd5b602002602001015185838151811061139f577f4e487b7100000000000000000000000000000000000000000000000000000000600052603260045260246000fd5b60200260200101516106cf565b8282815181106113e5577f4e487b7100000000000000000000000000000000000000000000000000000000600052603260045260246000fd5b602002602001018181525050806113fb90614180565b9050611319565b508091505092915050565b600381565b600560009054906101000a900460ff1681565b61142d611a78565b73ffffffffffffffffffffffffffffffffffffffff1661144b61157a565b73ffffffffffffffffffffffffffffffffffffffff16146114a1576040517f08c379a000000000000000000000000000000000000000000000000000000000815260040161149890613c7a565b60405180910390fd5b6114ab600061228b565b565b6114b5611a78565b73ffffffffffffffffffffffffffffffffffffffff166114d361157a565b73ffffffffffffffffffffffffffffffffffffffff1614611529576040517f08c379a000000000000000000000000000000000000000000000000000000000815260040161152090613c7a565b60405180910390fd5b61157682828080601f016020809104026020016040519081016040528093929190818152602001838380828437600081840152601f19601f82011690508083019250505050505050612351565b5050565b6000600360009054906101000a900473ffffffffffffffffffffffffffffffffffffffff16905090565b6115b66115af611a78565b838361236b565b5050565b610d0581565b61014d81565b60075481565b666a94d74f43000081565b60066020528060005260406000206000915054906101000a900460ff1681565b60606116036001611a80565b604051602001611613919061392a565b604051602081830303815290604052905090565b6000600160008473ffffffffffffffffffffffffffffffffffffffff1673ffffffffffffffffffffffffffffffffffffffff16815260200190815260200160002060008373ffffffffffffffffffffffffffffffffffffffff1673ffffffffffffffffffffffffffffffffffffffff16815260200190815260200160002060009054906101000a900460ff16905092915050565b604051806080016040528060428152602001614a7e6042913981565b6116df611a78565b73ffffffffffffffffffffffffffffffffffffffff168573ffffffffffffffffffffffffffffffffffffffff16148061172557506117248561171f611a78565b611627565b5b611764576040517f08c379a000000000000000000000000000000000000000000000000000000000815260040161175b90613b5a565b60405180910390fd5b61177185858585856124d8565b5050505050565b611780611a78565b73ffffffffffffffffffffffffffffffffffffffff1661179e61157a565b73ffffffffffffffffffffffffffffffffffffffff16146117f4576040517f08c379a00000000000000000000000000000000000000000000000000000000081526004016117eb90613c7a565b60405180910390fd5b600073ffffffffffffffffffffffffffffffffffffffff168173ffffffffffffffffffffffffffffffffffffffff161415611864576040517f08c379a000000000000000000000000000000000000000000000000000000000815260040161185b90613b3a565b60405180910390fd5b61186d8161228b565b50565b60008261187d858461275a565b1490509392505050565b80600660008473ffffffffffffffffffffffffffffffffffffffff1673ffffffffffffffffffffffffffffffffffffffff16815260200190815260200160002060006101000a81548160ff0219169083151502179055505050565b600073ffffffffffffffffffffffffffffffffffffffff168473ffffffffffffffffffffffffffffffffffffffff161415611952576040517f08c379a000000000000000000000000000000000000000000000000000000000815260040161194990613d9a565b60405180910390fd5b600061195c611a78565b905061197d8160008761196e886127f5565b611977886127f5565b876128bb565b8260008086815260200190815260200160002060008773ffffffffffffffffffffffffffffffffffffffff1673ffffffffffffffffffffffffffffffffffffffff16815260200190815260200160002060008282546119dc9190613f48565b925050819055508473ffffffffffffffffffffffffffffffffffffffff16600073ffffffffffffffffffffffffffffffffffffffff168273ffffffffffffffffffffffffffffffffffffffff167fc3d58168c5ae7397731d063d5bbf3d657854427343f4c083240f7aacaa2d0f628787604051611a5a929190613df5565b60405180910390a4611a71816000878787876128c3565b5050505050565b600033905090565b606060028054611a8f9061411d565b80601f0160208091040260200160405190810160405280929190818152602001828054611abb9061411d565b8015611b085780601f10611add57610100808354040283529160200191611b08565b820191906000526020600020905b815481529060010190602001808311611aeb57829003601f168201915b50505050509050919050565b60606000821415611b5c576040518060400160405280600181526020017f30000000000000000000000000000000000000000000000000000000000000008152509050611cbc565b600082905060005b60008214611b8e578080611b7790614180565b915050600a82611b879190613f9e565b9150611b64565b60008167ffffffffffffffff811115611bd0577f4e487b7100000000000000000000000000000000000000000000000000000000600052604160045260246000fd5b6040519080825280601f01601f191660200182016040528015611c025781602001600182028036833780820191505090505b5090505b60008514611cb557600182611c1b9190614029565b9150600a85611c2a91906141ed565b6030611c369190613f48565b60f81b818381518110611c72577f4e487b7100000000000000000000000000000000000000000000000000000000600052603260045260246000fd5b60200101907effffffffffffffffffffffffffffffffffffffffffffffffffffffffffffff1916908160001a905350600a85611cae9190613f9e565b9450611c06565b8093505050505b919050565b8151835114611d05576040517f08c379a0000000000000000000000000000000000000000000000000000000008152600401611cfc90613d7a565b60405180910390fd5b600073ffffffffffffffffffffffffffffffffffffffff168473ffffffffffffffffffffffffffffffffffffffff161415611d75576040517f08c379a0000000000000000000000000000000000000000000000000000000008152600401611d6c90613bba565b60405180910390fd5b6000611d7f611a78565b9050611d8f8187878787876128bb565b60005b8451811015611f8c576000858281518110611dd6577f4e487b7100000000000000000000000000000000000000000000000000000000600052603260045260246000fd5b602002602001015190506000858381518110611e1b577f4e487b7100000000000000000000000000000000000000000000000000000000600052603260045260246000fd5b60200260200101519050600080600084815260200190815260200160002060008b73ffffffffffffffffffffffffffffffffffffffff1673ffffffffffffffffffffffffffffffffffffffff16815260200190815260200160002054905081811015611ebc576040517f08c379a0000000000000000000000000000000000000000000000000000000008152600401611eb390613c5a565b60405180910390fd5b81810360008085815260200190815260200160002060008c73ffffffffffffffffffffffffffffffffffffffff1673ffffffffffffffffffffffffffffffffffffffff168152602001908152602001600020819055508160008085815260200190815260200160002060008b73ffffffffffffffffffffffffffffffffffffffff1673ffffffffffffffffffffffffffffffffffffffff1681526020019081526020016000206000828254611f719190613f48565b9250508190555050505080611f8590614180565b9050611d92565b508473ffffffffffffffffffffffffffffffffffffffff168673ffffffffffffffffffffffffffffffffffffffff168273ffffffffffffffffffffffffffffffffffffffff167f4a39dc06d4c0dbc64b70af90fd698a233a518aa5d07e595d983b8c0526c8f7fb8787604051612003929190613a4b565b60405180910390a4612019818787878787612aaa565b505050505050565b600073ffffffffffffffffffffffffffffffffffffffff168473ffffffffffffffffffffffffffffffffffffffff161415612091576040517f08c379a000000000000000000000000000000000000000000000000000000000815260040161208890613d9a565b60405180910390fd5b81518351146120d5576040517f08c379a00000000000000000000000000000000000000000000000000000000081526004016120cc90613d7a565b60405180910390fd5b60006120df611a78565b90506120f0816000878787876128bb565b60005b84518110156121f557838181518110612135577f4e487b7100000000000000000000000000000000000000000000000000000000600052603260045260246000fd5b6020026020010151600080878481518110612179577f4e487b7100000000000000000000000000000000000000000000000000000000600052603260045260246000fd5b6020026020010151815260200190815260200160002060008873ffffffffffffffffffffffffffffffffffffffff1673ffffffffffffffffffffffffffffffffffffffff16815260200190815260200160002060008282546121db9190613f48565b9250508190555080806121ed90614180565b9150506120f3565b508473ffffffffffffffffffffffffffffffffffffffff16600073ffffffffffffffffffffffffffffffffffffffff168273ffffffffffffffffffffffffffffffffffffffff167f4a39dc06d4c0dbc64b70af90fd698a233a518aa5d07e595d983b8c0526c8f7fb878760405161226d929190613a4b565b60405180910390a461228481600087878787612aaa565b5050505050565b6000600360009054906101000a900473ffffffffffffffffffffffffffffffffffffffff16905081600360006101000a81548173ffffffffffffffffffffffffffffffffffffffff021916908373ffffffffffffffffffffffffffffffffffffffff1602179055508173ffffffffffffffffffffffffffffffffffffffff168173ffffffffffffffffffffffffffffffffffffffff167f8be0079c531659141344cd1fd0a4f28419497f9722a3daafe3b4186f6b6457e060405160405180910390a35050565b8060029080519060200190612367929190612ccb565b5050565b8173ffffffffffffffffffffffffffffffffffffffff168373ffffffffffffffffffffffffffffffffffffffff1614156123da576040517f08c379a00000000000000000000000000000000000000000000000000000000081526004016123d190613d3a565b60405180910390fd5b80600160008573ffffffffffffffffffffffffffffffffffffffff1673ffffffffffffffffffffffffffffffffffffffff16815260200190815260200160002060008473ffffffffffffffffffffffffffffffffffffffff1673ffffffffffffffffffffffffffffffffffffffff16815260200190815260200160002060006101000a81548160ff0219169083151502179055508173ffffffffffffffffffffffffffffffffffffffff168373ffffffffffffffffffffffffffffffffffffffff167f17307eab39ab6107e8899845ad3d59bd9653f200f220920489ca2b5937696c31836040516124cb9190613a82565b60405180910390a3505050565b600073ffffffffffffffffffffffffffffffffffffffff168473ffffffffffffffffffffffffffffffffffffffff161415612548576040517f08c379a000000000000000000000000000000000000000000000000000000000815260040161253f90613bba565b60405180910390fd5b6000612552611a78565b9050612572818787612563886127f5565b61256c886127f5565b876128bb565b600080600086815260200190815260200160002060008873ffffffffffffffffffffffffffffffffffffffff1673ffffffffffffffffffffffffffffffffffffffff16815260200190815260200160002054905083811015612609576040517f08c379a000000000000000000000000000000000000000000000000000000000815260040161260090613c5a565b60405180910390fd5b83810360008087815260200190815260200160002060008973ffffffffffffffffffffffffffffffffffffffff1673ffffffffffffffffffffffffffffffffffffffff168152602001908152602001600020819055508360008087815260200190815260200160002060008873ffffffffffffffffffffffffffffffffffffffff1673ffffffffffffffffffffffffffffffffffffffff16815260200190815260200160002060008282546126be9190613f48565b925050819055508573ffffffffffffffffffffffffffffffffffffffff168773ffffffffffffffffffffffffffffffffffffffff168373ffffffffffffffffffffffffffffffffffffffff167fc3d58168c5ae7397731d063d5bbf3d657854427343f4c083240f7aacaa2d0f62888860405161273b929190613df5565b60405180910390a46127518288888888886128c3565b50505050505050565b60008082905060005b84518110156127ea5760008582815181106127a7577f4e487b7100000000000000000000000000000000000000000000000000000000600052603260045260246000fd5b602002602001015190508083116127c9576127c28382612c91565b92506127d6565b6127d38184612c91565b92505b5080806127e290614180565b915050612763565b508091505092915050565b60606000600167ffffffffffffffff81111561283a577f4e487b7100000000000000000000000000000000000000000000000000000000600052604160045260246000fd5b6040519080825280602002602001820160405280156128685781602001602082028036833780820191505090505b50905082816000815181106128a6577f4e487b7100000000000000000000000000000000000000000000000000000000600052603260045260246000fd5b60200260200101818152505080915050919050565b505050505050565b6128e28473ffffffffffffffffffffffffffffffffffffffff16612ca8565b15612aa2578373ffffffffffffffffffffffffffffffffffffffff1663f23a6e6187878686866040518663ffffffff1660e01b81526004016129289594939291906139cf565b602060405180830381600087803b15801561294257600080fd5b505af192505050801561297357506040513d601f19601f820116820180604052508101906129709190613340565b60015b612a195761297f6142da565b806308c379a014156129dc575061299461498b565b8061299f57506129de565b806040517f08c379a00000000000000000000000000000000000000000000000000000000081526004016129d39190613ab8565b60405180910390fd5b505b6040517f08c379a0000000000000000000000000000000000000000000000000000000008152600401612a1090613ada565b60405180910390fd5b63f23a6e6160e01b7bffffffffffffffffffffffffffffffffffffffffffffffffffffffff1916817bffffffffffffffffffffffffffffffffffffffffffffffffffffffff191614612aa0576040517f08c379a0000000000000000000000000000000000000000000000000000000008152600401612a9790613afa565b60405180910390fd5b505b505050505050565b612ac98473ffffffffffffffffffffffffffffffffffffffff16612ca8565b15612c89578373ffffffffffffffffffffffffffffffffffffffff1663bc197c8187878686866040518663ffffffff1660e01b8152600401612b0f959493929190613967565b602060405180830381600087803b158015612b2957600080fd5b505af1925050508015612b5a57506040513d601f19601f82011682018060405250810190612b579190613340565b60015b612c0057612b666142da565b806308c379a01415612bc35750612b7b61498b565b80612b865750612bc5565b806040517f08c379a0000000000000000000000000000000000000000000000000000000008152600401612bba9190613ab8565b60405180910390fd5b505b6040517f08c379a0000000000000000000000000000000000000000000000000000000008152600401612bf790613ada565b60405180910390fd5b63bc197c8160e01b7bffffffffffffffffffffffffffffffffffffffffffffffffffffffff1916817bffffffffffffffffffffffffffffffffffffffffffffffffffffffff191614612c87576040517f08c379a0000000000000000000000000000000000000000000000000000000008152600401612c7e90613afa565b60405180910390fd5b505b505050505050565b600082600052816020526040600020905092915050565b6000808273ffffffffffffffffffffffffffffffffffffffff163b119050919050565b828054612cd79061411d565b90600052602060002090601f016020900481019282612cf95760008555612d40565b82601f10612d1257805160ff1916838001178555612d40565b82800160010185558215612d40579182015b82811115612d3f578251825591602001919060010190612d24565b5b509050612d4d9190612d51565b5090565b5b80821115612d6a576000816000905550600101612d52565b5090565b6000612d81612d7c84613e43565b613e1e565b90508083825260208201905082856020860282011115612da057600080fd5b60005b85811015612dd05781612db68882612e84565b845260208401935060208301925050600181019050612da3565b5050509392505050565b6000612ded612de884613e6f565b613e1e565b90508083825260208201905082856020860282011115612e0c57600080fd5b60005b85811015612e3c5781612e228882612fea565b845260208401935060208301925050600181019050612e0f565b5050509392505050565b6000612e59612e5484613e9b565b613e1e565b905082815260208101848484011115612e7157600080fd5b612e7c8482856140db565b509392505050565b600081359050612e9381614a21565b92915050565b600082601f830112612eaa57600080fd5b8135612eba848260208601612d6e565b91505092915050565b60008083601f840112612ed557600080fd5b8235905067ffffffffffffffff811115612eee57600080fd5b602083019150836020820283011115612f0657600080fd5b9250929050565b600082601f830112612f1e57600080fd5b8135612f2e848260208601612dda565b91505092915050565b600081359050612f4681614a38565b92915050565b600081359050612f5b81614a4f565b92915050565b600081519050612f7081614a4f565b92915050565b600082601f830112612f8757600080fd5b8135612f97848260208601612e46565b91505092915050565b60008083601f840112612fb257600080fd5b8235905067ffffffffffffffff811115612fcb57600080fd5b602083019150836001820283011115612fe357600080fd5b9250929050565b600081359050612ff981614a66565b92915050565b60006020828403121561301157600080fd5b600061301f84828501612e84565b91505092915050565b6000806040838503121561303b57600080fd5b600061304985828601612e84565b925050602061305a85828601612e84565b9150509250929050565b600080600080600060a0868803121561307c57600080fd5b600061308a88828901612e84565b955050602061309b88828901612e84565b945050604086013567ffffffffffffffff8111156130b857600080fd5b6130c488828901612f0d565b935050606086013567ffffffffffffffff8111156130e157600080fd5b6130ed88828901612f0d565b925050608086013567ffffffffffffffff81111561310a57600080fd5b61311688828901612f76565b9150509295509295909350565b600080600080600060a0868803121561313b57600080fd5b600061314988828901612e84565b955050602061315a88828901612e84565b945050604061316b88828901612fea565b935050606061317c88828901612fea565b925050608086013567ffffffffffffffff81111561319957600080fd5b6131a588828901612f76565b9150509295509295909350565b6000806000604084860312156131c757600080fd5b60006131d586828701612e84565b935050602084013567ffffffffffffffff8111156131f257600080fd5b6131fe86828701612ec3565b92509250509250925092565b6000806040838503121561321d57600080fd5b600061322b85828601612e84565b925050602061323c85828601612f37565b9150509250929050565b6000806040838503121561325957600080fd5b600061326785828601612e84565b925050602061327885828601612fea565b9150509250929050565b6000806040838503121561329557600080fd5b600083013567ffffffffffffffff8111156132af57600080fd5b6132bb85828601612e99565b925050602083013567ffffffffffffffff8111156132d857600080fd5b6132e485828601612f0d565b9150509250929050565b60006020828403121561330057600080fd5b600061330e84828501612f37565b91505092915050565b60006020828403121561332957600080fd5b600061333784828501612f4c565b91505092915050565b60006020828403121561335257600080fd5b600061336084828501612f61565b91505092915050565b6000806020838503121561337c57600080fd5b600083013567ffffffffffffffff81111561339657600080fd5b6133a285828601612fa0565b92509250509250929050565b6000602082840312156133c057600080fd5b60006133ce84828501612fea565b91505092915050565b60006133e383836138c2565b60208301905092915050565b6133f88161405d565b82525050565b61340f61340a8261405d565b6141c9565b82525050565b600061342082613edc565b61342a8185613f0a565b935061343583613ecc565b8060005b8381101561346657815161344d88826133d7565b975061345883613efd565b925050600181019050613439565b5085935050505092915050565b61347c8161406f565b82525050565b61348b8161407b565b82525050565b600061349c82613ee7565b6134a68185613f1b565b93506134b68185602086016140ea565b6134bf816142fc565b840191505092915050565b60006134d582613ef2565b6134df8185613f2c565b93506134ef8185602086016140ea565b6134f8816142fc565b840191505092915050565b600061350e82613ef2565b6135188185613f3d565b93506135288185602086016140ea565b80840191505092915050565b6000613541603483613f2c565b915061354c82614327565b604082019050919050565b6000613564602883613f2c565b915061356f82614376565b604082019050919050565b6000613587602b83613f2c565b9150613592826143c5565b604082019050919050565b60006135aa602683613f2c565b91506135b582614414565b604082019050919050565b60006135cd602983613f2c565b91506135d882614463565b604082019050919050565b60006135f0601583613f3d565b91506135fb826144b2565b601582019050919050565b6000613613601f83613f2c565b915061361e826144db565b602082019050919050565b6000613636602383613f2c565b915061364182614504565b604082019050919050565b6000613659602583613f2c565b915061366482614553565b604082019050919050565b600061367c603283613f2c565b9150613687826145a2565b604082019050919050565b600061369f601283613f2c565b91506136aa826145f1565b602082019050919050565b60006136c2601a83613f2c565b91506136cd8261461a565b602082019050919050565b60006136e5601f83613f2c565b91506136f082614643565b602082019050919050565b6000613708602a83613f2c565b91506137138261466c565b604082019050919050565b600061372b600583613f3d565b9150613736826146bb565b600582019050919050565b600061374e602083613f2c565b9150613759826146e4565b602082019050919050565b6000613771602783613f2c565b915061377c8261470d565b604082019050919050565b6000613794602383613f2c565b915061379f8261475c565b604082019050919050565b60006137b7601183613f2c565b91506137c2826147ab565b602082019050919050565b60006137da601583613f2c565b91506137e5826147d4565b602082019050919050565b60006137fd601583613f2c565b9150613808826147fd565b602082019050919050565b6000613820602983613f2c565b915061382b82614826565b604082019050919050565b6000613843602983613f2c565b915061384e82614875565b604082019050919050565b6000613866602883613f2c565b9150613871826148c4565b604082019050919050565b6000613889602183613f2c565b915061389482614913565b604082019050919050565b60006138ac601883613f2c565b91506138b782614962565b602082019050919050565b6138cb816140d1565b82525050565b6138da816140d1565b82525050565b60006138ec82846133fe565b60148201915081905092915050565b60006139078285613503565b91506139138284613503565b915061391e8261371e565b91508190509392505050565b60006139368284613503565b9150613941826135e3565b915081905092915050565b600060208201905061396160008301846133ef565b92915050565b600060a08201905061397c60008301886133ef565b61398960208301876133ef565b818103604083015261399b8186613415565b905081810360608301526139af8185613415565b905081810360808301526139c38184613491565b90509695505050505050565b600060a0820190506139e460008301886133ef565b6139f160208301876133ef565b6139fe60408301866138d1565b613a0b60608301856138d1565b8181036080830152613a1d8184613491565b90509695505050505050565b60006020820190508181036000830152613a438184613415565b905092915050565b60006040820190508181036000830152613a658185613415565b90508181036020830152613a798184613415565b90509392505050565b6000602082019050613a976000830184613473565b92915050565b6000602082019050613ab26000830184613482565b92915050565b60006020820190508181036000830152613ad281846134ca565b905092915050565b60006020820190508181036000830152613af381613534565b9050919050565b60006020820190508181036000830152613b1381613557565b9050919050565b60006020820190508181036000830152613b338161357a565b9050919050565b60006020820190508181036000830152613b538161359d565b9050919050565b60006020820190508181036000830152613b73816135c0565b9050919050565b60006020820190508181036000830152613b9381613606565b9050919050565b60006020820190508181036000830152613bb381613629565b9050919050565b60006020820190508181036000830152613bd38161364c565b9050919050565b60006020820190508181036000830152613bf38161366f565b9050919050565b60006020820190508181036000830152613c1381613692565b9050919050565b60006020820190508181036000830152613c33816136b5565b9050919050565b60006020820190508181036000830152613c53816136d8565b9050919050565b60006020820190508181036000830152613c73816136fb565b9050919050565b60006020820190508181036000830152613c9381613741565b9050919050565b60006020820190508181036000830152613cb381613764565b9050919050565b60006020820190508181036000830152613cd381613787565b9050919050565b60006020820190508181036000830152613cf3816137aa565b9050919050565b60006020820190508181036000830152613d13816137cd565b9050919050565b60006020820190508181036000830152613d33816137f0565b9050919050565b60006020820190508181036000830152613d5381613813565b9050919050565b60006020820190508181036000830152613d7381613836565b9050919050565b60006020820190508181036000830152613d9381613859565b9050919050565b60006020820190508181036000830152613db38161387c565b9050919050565b60006020820190508181036000830152613dd38161389f565b9050919050565b6000602082019050613def60008301846138d1565b92915050565b6000604082019050613e0a60008301856138d1565b613e1760208301846138d1565b9392505050565b6000613e28613e39565b9050613e34828261414f565b919050565b6000604051905090565b600067ffffffffffffffff821115613e5e57613e5d6142ab565b5b602082029050602081019050919050565b600067ffffffffffffffff821115613e8a57613e896142ab565b5b602082029050602081019050919050565b600067ffffffffffffffff821115613eb657613eb56142ab565b5b613ebf826142fc565b9050602081019050919050565b6000819050602082019050919050565b600081519050919050565b600081519050919050565b600081519050919050565b6000602082019050919050565b600082825260208201905092915050565b600082825260208201905092915050565b600082825260208201905092915050565b600081905092915050565b6000613f53826140d1565b9150613f5e836140d1565b9250827fffffffffffffffffffffffffffffffffffffffffffffffffffffffffffffffff03821115613f9357613f9261421e565b5b828201905092915050565b6000613fa9826140d1565b9150613fb4836140d1565b925082613fc457613fc361424d565b5b828204905092915050565b6000613fda826140d1565b9150613fe5836140d1565b9250817fffffffffffffffffffffffffffffffffffffffffffffffffffffffffffffffff048311821515161561401e5761401d61421e565b5b828202905092915050565b6000614034826140d1565b915061403f836140d1565b9250828210156140525761405161421e565b5b828203905092915050565b6000614068826140b1565b9050919050565b60008115159050919050565b6000819050919050565b60007fffffffff0000000000000000000000000000000000000000000000000000000082169050919050565b600073ffffffffffffffffffffffffffffffffffffffff82169050919050565b6000819050919050565b82818337600083830152505050565b60005b838110156141085780820151818401526020810190506140ed565b83811115614117576000848401525b50505050565b6000600282049050600182168061413557607f821691505b602082108114156141495761414861427c565b5b50919050565b614158826142fc565b810181811067ffffffffffffffff82111715614177576141766142ab565b5b80604052505050565b600061418b826140d1565b91507fffffffffffffffffffffffffffffffffffffffffffffffffffffffffffffffff8214156141be576141bd61421e565b5b600182019050919050565b60006141d4826141db565b9050919050565b60006141e68261430d565b9050919050565b60006141f8826140d1565b9150614203836140d1565b9250826142135761421261424d565b5b828206905092915050565b7f4e487b7100000000000000000000000000000000000000000000000000000000600052601160045260246000fd5b7f4e487b7100000000000000000000000000000000000000000000000000000000600052601260045260246000fd5b7f4e487b7100000000000000000000000000000000000000000000000000000000600052602260045260246000fd5b7f4e487b7100000000000000000000000000000000000000000000000000000000600052604160045260246000fd5b600060033d11156142f95760046000803e6142f660005161431a565b90505b90565b6000601f19601f8301169050919050565b60008160601b9050919050565b60008160e01c9050919050565b7f455243313135353a207472616e7366657220746f206e6f6e204552433131353560008201527f526563656976657220696d706c656d656e746572000000000000000000000000602082015250565b7f455243313135353a204552433131353552656365697665722072656a6563746560008201527f6420746f6b656e73000000000000000000000000000000000000000000000000602082015250565b7f455243313135353a2062616c616e636520717565727920666f7220746865207a60008201527f65726f2061646472657373000000000000000000000000000000000000000000602082015250565b7f4f776e61626c653a206e6577206f776e657220697320746865207a65726f206160008201527f6464726573730000000000000000000000000000000000000000000000000000602082015250565b7f455243313135353a2063616c6c6572206973206e6f74206f776e6572206e6f7260008201527f20617070726f7665640000000000000000000000000000000000000000000000602082015250565b7f636f6e74726163744d657461646174612e6a736f6e0000000000000000000000600082015250565b7f546f6b656e204944206d7573742062652067726561746572207468616e203000600082015250565b7f4d696e74696e672061646472657373206973206e6f74206f6e2077686974656c60008201527f6973740000000000000000000000000000000000000000000000000000000000602082015250565b7f455243313135353a207472616e7366657220746f20746865207a65726f20616460008201527f6472657373000000000000000000000000000000000000000000000000000000602082015250565b7f455243313135353a207472616e736665722063616c6c6572206973206e6f742060008201527f6f776e6572206e6f7220617070726f7665640000000000000000000000000000602082015250565b7f4e46542073616c65206973207061757365640000000000000000000000000000600082015250565b7f546f6f206d616e79204e465473206265696e67206d696e746564000000000000600082015250565b7f546f6b656e204944206861736e2774206265656e206d696e7465642079657400600082015250565b7f455243313135353a20696e73756666696369656e742062616c616e636520666f60008201527f72207472616e7366657200000000000000000000000000000000000000000000602082015250565b7f2e6a736f6e000000000000000000000000000000000000000000000000000000600082015250565b7f4f776e61626c653a2063616c6c6572206973206e6f7420746865206f776e6572600082015250565b7f416c7265616479206d696e7465642070726573616c6520666f7220746869732060008201527f6164647265737300000000000000000000000000000000000000000000000000602082015250565b7f4e6f7420656e6f75676874204e465420737570706c79206c65667420746f206d60008201527f696e740000000000000000000000000000000000000000000000000000000000602082015250565b7f50726573616c6520697320616374697665000000000000000000000000000000600082015250565b7f50726573616c65204e46547320736f6c64206f75740000000000000000000000600082015250565b7f50726573616c65206973206e6f74206163746976650000000000000000000000600082015250565b7f455243313135353a2073657474696e6720617070726f76616c2073746174757360008201527f20666f722073656c660000000000000000000000000000000000000000000000602082015250565b7f455243313135353a206163636f756e747320616e6420696473206c656e67746860008201527f206d69736d617463680000000000000000000000000000000000000000000000602082015250565b7f455243313135353a2069647320616e6420616d6f756e7473206c656e6774682060008201527f6d69736d61746368000000000000000000000000000000000000000000000000602082015250565b7f455243313135353a206d696e7420746f20746865207a65726f2061646472657360008201527f7300000000000000000000000000000000000000000000000000000000000000602082015250565b7f496e73756666696369656e742045544820746f206d696e740000000000000000600082015250565b600060443d101561499b57614a1e565b6149a3613e39565b60043d036004823e80513d602482011167ffffffffffffffff821117156149cb575050614a1e565b808201805167ffffffffffffffff8111156149e95750505050614a1e565b80602083010160043d038501811115614a06575050505050614a1e565b614a158260200185018661414f565b82955050505050505b90565b614a2a8161405d565b8114614a3557600080fd5b50565b614a418161406f565b8114614a4c57600080fd5b50565b614a5881614085565b8114614a6357600080fd5b50565b614a6f816140d1565b8114614a7a57600080fd5b5056fe307832376466343562383361393662636237356337646336393138663132666463323231323062383030393330616531323962336631386266616536386662323332a26469706673582212209b2aa2b43e3ca187c36287285671c984c41dbbf4713dc4b4bd2ae7d488d7877b64736f6c6343000801003368747470733a2f2f676174657761792e70696e6174612e636c6f75642f697066732f516d617871626f325a444252597637556b77374c394237647132765551714231797348367835434c6344415650612f",
  "linkReferences": {},
  "deployedLinkReferences": {}
}